:020000040800F2
:10000000D0050024AD02000861830008F17A0008E1
:1000100059830008A10C0008D19E000800000000D0
:10002000000000000000000000000000A1870008A0
:10003000A90C000800000000E983000809880008F6
:10004000C7020008C7020008C7020008C70200086C
:10005000C7020008C7020008C7020008C70200085C
:10006000C7020008C7020008C7020008C70200084C
:10007000C7020008C7020008C7020008C70200083C
:10008000C7020008C7020008910C0008C702000858
:10009000C7020008C7020008C7020008C70200081C
:1000A000C7020008C7020008C7020008C70200080C
:1000B000D98A0008C7020008C7020008C702000862
:1000C000C7020008C7020008C7020008C7020008EC
:1000D000C7020008C7020008C7020008C7020008DC
:1000E000C7020008C702000800000000C70200089D
:1000F000C7020008C7020008C7020008C7020008BC
:10010000C7020008C7020008C7020008C7020008AB
:10011000C7020008C7020008C7020008C70200089B
:10012000C7020008C7020008C7020008C70200088B
:10013000C7020008C7020008C7020008C70200087B
:1001400000000000000000000000000000000000AF
:10015000C7020008C7020008C7020008C70200085B
:10016000C7020008C7020008C7020008C70200084B
:10017000C7020008C7020008C7020008000000000C
:10018000C7020008C7020008C7020008C70200082B
:10019000C7020008C7020008C7020008C70200081B
:1001A000C7020008C7020008C7020008C70200080B
:1001B000C7020008C7020008C7020008C7020008FB
:1001C000C7020008C7020008C7020008C7020008EB
:1001D000C7020008C7020008C7020008C7020008DB
:1001E000C7020008C7020008C7020008C7020008CB
:1001F000C7020008C7020008C7020008C7020008BB
:10020000C7020008C7020008C7020008C7020008AA
:10021000C7020008C7020008C7020008C70200089A
:10022000C7020008C7020008C7020008000000005B
:10023000C7020008C702000800000000C70200084B
:10024000C7020008C7020008C7020008C70200086A
:10025000C7020008C7020008C7020008C70200085A
:10026000C7020008C7020008C7020008C70200084A
:10027000C7020008C7020008C7020008000000000B
:10028000C7020008C7020008C702000800000000FB
:1002900000000000C7020008DFF80CD000F048FAA8
:1002A00000480047A1A20008D00500240648804766
:1002B00006480047FEE7FEE7FEE7FEE7FEE7FEE74B
:1002C000FEE7FEE7FEE7FEE77989000899020008ED
:1002D0002DE9F05F0546002092469B46884606467B
:1002E000814640241BE0284641464746224600F00E
:1002F00057F853465A46C01A914110D31146184632
:10030000224600F03EF82D1A67EB01084F462246C0
:100310000120002100F035F817EB00094E41201EA6
:10032000A4F10104DFDC484631462A464346BDE8D5
:10033000F09FD2B201E000F8012B491EFBD27047BA
:100340000022F6E710B513460A4604461946FFF7A1
:10035000F0FF204610BD30B50B460146002020229C
:10036000012409E021FA02F59D4205D303FA02F5C2
:10037000491B04FA02F52844151EA2F10102F1DC22
:1003800030BD202A04DB203A00FA02F10020704739
:100390009140C2F1200320FA03F3194390407047C3
:1003A000202A04DB203A21FA02F00021704721FACA
:1003B00002F3D040C2F12002914008431946704731
:1003C0002DE9FE4F804681EA0300C00F0C460090E5
:1003D00021F0004123F00045B8EB0200A94105D20D
:1003E0004046214690461C460B46024623F00040FC
:1003F000104347D0270DC7F30A00C3F30A510290F8
:10040000401A019040286BDAC3F3130040F4801BBC
:100410000098924620B10023D2EB030A63EB0B0B4A
:1004200001985946C0F140025046FFF7AAFF064620
:100430000D4650465946019A00F08CF910EB080021
:100440006141002487EA115284EAE7731A4340D0DD
:10045000009A62B3019A012A4FEA075215DC001B89
:1004600061EB02014FF0004202EA0752CDE900427F
:10047000001C41F5801132462B4600F08CF903B088
:10048000BDE8F08F40462146F9E7001B61EB020111
:10049000001C41F5801300185B412018A2F50017DD
:1004A00047EB030140EAD570B6196D4111E06D08C4
:1004B0004FEA360645EAC0754FEA0752001B61EB6A
:1004C0000201001C41F5801149084FEA3000001973
:1004D000514132462B4603B0BDE8F04F00F04CB915
:1004E0000098012240000023D0EB020263EBE0738E
:1004F000009821464FEAE074B8EB000061EB04017C
:10050000E9E783F000435BE781F0004158E72DE91C
:10051000FE4F81EA030404F0004421F000410094FE
:100520004FF0000B23F0004350EA01045ED052EA82
:1005300003045BD0C3F30A54C1F30A552C44A4F25C
:10054000F3340194A0FB0254C1F3130141F4801170
:10055000C3F3130343F4801301FB024400FB034E77
:10056000840A970A44EA815447EA8357A4FB076840
:1005700002958D0A05FB07854FEA932C04FB0C546A
:100580002705029D4FEA065847EA1637B5EB0805DE
:100590006EEB070C870E920E47EA811742EA831230
:1005A000A7FB0201B6EB0B0164EB00042B0D43EA41
:1005B0000C335E1844EB1C50DA465146E7FB02014F
:1005C000C5F313044FEA0B3343EA14534FEA0432E2
:1005D000019C43EA0603A4F10C040294009CCDE9BB
:1005E00000B400F0D8F803B0BDE8F08F0020014659
:1005F000F9E72DE9F04D81EA030404F0004B21F006
:10060000004514464FF0000A23F0004150EA05026D
:1006100020D054EA01021DD0C5F30A570246C5F3A3
:100620001303C1F31300C1F30A5640F4801543F4D9
:100630008013A7EB0608101BD64608F2FD3873EBB3
:10064000050002D308F1010801E092185B41B8F1FE
:10065000000F03DA00200146BDE8F08D00204FF4C2
:100660008011064684460EE0171B73EB050705D381
:10067000121B63EB050306434CEA010C49084FEAE1
:10068000300092185B4150EA0107EDD152EA0300B5
:1006900012D082EA040083EA0501084305D0101B4A
:1006A000AB4106D20122002306E000224FF00043B6
:1006B00002E06FF0010253101AEB06004CEB0851F8
:1006C00010EB0A0041EB0B01BDE8F04D00F054B80F
:1006D000C1F30A52C1F3130140F2FF3341F4801118
:1006E0009A4202DA00200146704740F233439A42B0
:1006F000A2F2334202DC5242FFF752BEFFF741BE84
:1007000030B5041E71F1000404DB4FF00044404298
:1007100064EB0101141E73F1000405DB1C464FF06D
:100720000043524263EB0403994208BF904230BD3C
:10073000064C074D06E0E06840F0010394E807002E
:1007400098471034AC42F6D3FFF7AAFD88AD0008F5
:10075000A8AD0008202A06DBCB17203A41FA02F0A8
:1007600043EAE07306E041FA02F3D040C2F120020E
:10077000914008431946704710B5141E73F10004E8
:1007800008DA401C41F1000192185B411A4301D183
:1007900020F0010010BD2DE9F04D92469B4611B1AD
:1007A000B1FA81F202E0B0FA80F220329046FFF70F
:1007B000E8FD04460F4640EA0A0041EA0B015346B1
:1007C0005A46084313D0114653EA010019D0C8F124
:1007D00040025046FFF7E4FD05460E465046594696
:1007E0004246FFF7CEFD084305D0012004E0204635
:1007F0003946BDE8F08D0020054346EAE0762C43FB
:1008000037430A986305E40AA0EB08000022FD0ABA
:1008100044EA47540A3002D500200146E9E70105C1
:1008200010196941DDE9084500196941BDE8F04D3D
:10083000A2E700000000000080B586B001460590E8
:100840000598006842F20002C4F20202904203914D
:1008500009D0FFE70598006842F20011C4F20201D6
:10086000884209D1FFE742F20830C4F20200006872
:1008700010F4403F09D129E046F20830C5F60200E5
:10088000006810F4403F21D0FFE705F051F90490D3
:1008900005984068B0F5803F02900AD0FFE70298C3
:1008A000B0F5003F05D0FFE70298B0F5403F07D014
:1008B0000AE00598C0880499B1FBF0F0049004E0C8
:1008C00004988008049000E0FFE75FE04FF4002008
:1008D000002103F005F8049005984068B0F5802FDA
:1008E000019032D0FFE70198B0F5002F2DD0FFE73F
:1008F0000198B0F5402F28D0FFE70198B0F5801F90
:1009000023D0FFE70198B0F5A01F1ED0FFE70198A4
:10091000B0F5C01F19D0FFE70198B0F5E01F1FD058
:10092000FFE70198B0F5001F1ED0FFE70198B0F572
:10093000101F1DD0FFE70198B0F5201F1CD0FFE766
:100940000198B0F5301F1BD01EE0059840686FF08D
:10095000010101EA50400499B1FBF0F0049014E069
:1009600004980009049010E00498400904900CE0F9
:1009700004988009049008E00498C009049004E0F9
:100980000498000A049000E0FFE7FFE702F0ACF9EA
:1009900041F2030E704517D8FFE7049842F6015163
:1009A000C0F23111884207D3FFE7059800688168DB
:1009B00041F48071816006E005980068816821F447
:1009C00080718160FFE743E0049840080490049838
:1009D00045F61061C0F25F01884209D8FFE705982B
:1009E0000068806820F440700599096888602EE0EE
:1009F00004984BF62041C0F2BE0188420AD8FFE7B6
:100A0000059800688068012161F30920059909684B
:100A100088601BE0049847F64001C0F27D118842CF
:100A20000AD8FFE7059800688068022161F3092071
:100A300005990968886008E005980068806840F4B6
:100A40004070059909688860FFE7FFE7FFE7FFE767
:100A500006B080BD0000000080B586B0014604905D
:100A600004980068019107F0E3F802900498006888
:100A700007F0EAF8002851D0FFE7029800284DD18E
:100A8000FFE704980068806800F00D0001280BD192
:100A9000FFE70498006807F02FF8049800684FF00B
:100AA000030EC0F800E00DE00498416D41F0100124
:100AB00041650498816D41F00101816501208DF847
:100AC00017002FE002F018F90390FFE70498006880
:100AD0008068C007002820D0FFE702F00DF9DDF89C
:100AE0000CE0A0EB0E00032816D3FFE70498006883
:100AF0008068C00700280ED0FFE70498416D41F0E0
:100B0000100141650498816D41F00101816501206A
:100B10008DF8170006E0FFE7D8E7FFE700208DF823
:100B20001700FFE79DF8170006B080BD0000000029
:100B300080B588B00146069006980068039107F0DA
:100B400083F8002840F09B80FFE7069800688068E3
:100B50003F21C8F2000108420ED0FFE70698416D20
:100B600041F0100141650698816D41F001018165F8
:100B700001208DF81F0086E00698006806F0DCFF73
:100B800002F0BAF80590069800684FF0010E42F2A4
:100B90000001C4F202018842CDF808E00CD0FFE762
:100BA000069800684DF60071CBF6FD710844B0FA66
:100BB00080F040090290FFE70298C00746F200313A
:100BC000C5F6020100281CBF42F20031C4F2020146
:100BD000084606F0EDFF04900698006842F2001106
:100BE000C4F20201884206D1FFE742F20000C4F2DB
:100BF0000200019003E0069800680190FFE7019869
:100C000006990968884204D0FFE70498002835D186
:100C1000FFE7FFE7069800680068C00700282CD1AE
:100C2000FFE70698006807F00FF8002805D1FFE7F6
:100C30000698006806F080FFFFE702F05DF8DDF837
:100C400014E0A0EB0E00032816D3FFE70698006817
:100C50000068C00700280ED1FFE70698416D41F0FB
:100C6000100141650698816D41F001018165012007
:100C70008DF81F0007E0FFE7CCE7FFE7FFE7002064
:100C80008DF81F00FFE79DF81F0008B080BD000031
:100C900080B540F23000C2F2004000F075FE80BD29
:100CA000FFE7FEE7000000007047000000000000C2
:100CB00081B0EFF3108072B60090FFE7FEE700000E
:100CC00080B58AB013468C468646089007910692F6
:100CD000002004900393CDF808C0CDF804E0FFE7AE
:100CE000089890F85000012804D1FFE702208DF801
:100CF00027005DE00898012180F85010FFE7FFE72A
:100D00000898FFF7A9FE8DF817009DF81700002836
:100D10003DD1FFE70898406D40F0020020F4885074
:100D200008994865089800680799069A07F0E4F85A
:100D3000FFE70898006806F063FF00281ED0FFE771
:100D400004980130049004984FF60001C2F2C35198
:100D5000884212D3FFE70898406D40F0100020F061
:100D6000020008994865FFE70898002180F85010B4
:100D7000FFE701208DF827001AE0DAE70898406DB8
:100D800040F0010020F002000899486505E008984D
:100D9000416D41F010014165FFE7FFE70898002130
:100DA00080F85010FFE79DF817008DF82700FFE747
:100DB0009DF827000AB080BD82B0014601900091E5
:100DC00002B070470000000082B00146019000911F
:100DD00002B070470000000082B00146019000910F
:100DE00002B070470000000082B0014601900091FF
:100DF00002B070470000000082B0014601900091EF
:100E000002B070470000000080B5A8B00A46034653
:100E10002690259100208DF89300259800680028E1
:100E20000892079301D0FFE7FFE7FFE7269890F8C5
:100E30005000012804D1FFE702208DF89F0034E123
:100E40002698012180F85010FFE7FFE700201F904F
:100E500020902698006842F20001C4F20201884204
:100E600006D1FFE742F20010C4F202000A9002E04D
:100E700000200A90FFE70A9800280FD1FFE7269884
:100E8000416D41F020014165FFE72698002180F87F
:100E90005010FFE701208DF89F0006E10A9806F048
:100EA00003FF09902698006806F0FEFE002840F037
:100EB000E880FFE70998002840F0E380FFE72698E4
:100EC0000068012142F20002C4F20202904206913F
:100ED0000CD0FFE7269800684DF60071CBF6FD7147
:100EE0000844B0FA80F040090690FFE70698C00772
:100EF00046F20031C5F6020100281CBF42F2003163
:100F0000C4F20201239125980068002861D0FFE710
:100F10002398806820F44040259949680843239924
:100F2000886026980068012142F20002C4F20202A1
:100F3000904205910CD0FFE7269800684DF60071AD
:100F4000CBF6FD710844B0FA80F040090590FFE748
:100F50000598C00746F20031C5F6020100281CBF03
:100F600042F20031C4F2020142F20030C4F2020047
:100F7000814214D1FFE742F20000C4F2020006F001
:100F80006FFE42F2001EC4F2020E0490704606F09C
:100F900067FEDDF810E040EA0E00039007E046F23D
:100FA0000000C5F6020006F05BFE0390FFE7039821
:100FB00000280DD1FFE72398806840F61F71884311
:100FC00025990A6889681143084323998860FFE7D7
:100FD00056E02398816821F440418160269800689A
:100FE000012142F20002C4F20202904202910CD0AE
:100FF000FFE7269800684DF60071CBF6FD710844B6
:10100000B0FA80F040090290FFE70298C00746F26C
:101010000031C5F6020100281CBF42F20031C4F2C3
:10102000020142F20030C4F20200814214D1FFE713
:1010300042F20000C4F2020006F012FE42F2001E6C
:10104000C4F2020E0190704606F00AFEDDF804E0DC
:1010500040EA0E00009007E046F20000C5F60200EC
:1010600006F0FEFD0090FFE70098002807D1FFE79B
:101070002398816840F61F7291438160FFE7FFE784
:1010800008E02698416D41F02001416501208DF86E
:101090009300FFE7FFE72698002180F85010FFE754
:1010A0009DF893008DF89F00FFE79DF89F0028B002
:1010B00080BD00000000000080B5BCB00A460346B9
:1010C0002A90299100208DF8A30025902A9890F865
:1010D000380001282292219301D1FFE700E0FFE7C9
:1010E0002998C0680021C4F2FF71884201D0FFE74F
:1010F0001EE02A98006842F20001C4F20201884210
:1011000001D1FFE7FFE72A98006842F20011C4F21C
:101110000201884201D1FFE7FFE72A98006846F202
:101120000001C5F60201884201D1FFE7FFE7FFE7B2
:10113000FFE72A9890F85000012804D1FFE7022029
:101140008DF8AF00F7E32A98012180F85010FFE7EF
:10115000FFE72A98006806F09BFD002840F0D7833F
:10116000FFE7299800680003002806D1FFE72998C7
:101170000068C0F38460209016E02998006890FA17
:10118000A0F02C902C98002804D1FFE720208DF8A7
:10119000B70005E02C98B0FA80F08DF8B700FFE7B3
:1011A0009DF8B7002090FFE7209800F01F00012174
:1011B00001FA00F02A990968CA691043C8612A989F
:1011C000006829990A68496806F08AFD2A9800682B
:1011D00006F05EFD24902A98006806F0F5FC239046
:1011E0002498002840F0BE80FFE72398002840F0B4
:1011F000B980FFE72A98006829990A6889681F91D1
:1012000011461F9A06F0A4FD41F20000C5F6004009
:10121000006800F07040B0F1805F0BD1FFE72998C3
:1012200040692A990968C96801F01C014908884089
:101230001E901FE02A980068C068C00600280BD4E2
:10124000FFE7299840692A990968C96801F01C01DB
:10125000490888401D900AE0299840692A99096840
:10126000C96801F01001490888401D90FFE71D98EA
:101270001E90FFE71E98279029980069042827D020
:10128000FFE72A98006829990A680969279B06F0F0
:10129000EFFD2A98006829990A69497E0139B1FA57
:1012A00081F14909C9071C9111461C9A06F004FEF8
:1012B0002A98006829990A69097E0139B1FA81F1F1
:1012C0004909C9021B9111461B9A06F0B5FD48E079
:1012D0002A980068006E00F0F84029990968B0EB80
:1012E000816F07D1FFE72A980068016E21F0004165
:1012F0000166FFE72A980068406E00F0F8402999DF
:101300000968B0EB816F07D1FFE72A980068416E4A
:1013100021F000414166FFE72A980068806E00F0E6
:10132000F84029990968B0EB816F07D1FFE72A9847
:101330000068816E21F000418166FFE72A9800680D
:10134000C06E00F0F84029990968B0EB816F07D1B1
:10135000FFE72A980068C16E21F00041C166FFE7EF
:10136000FFE7FFE72A98006806F06EFC002840F0CF
:10137000CD82FFE72A98006829990A68C9681A91FE
:1013800011461A9A06F00CFD2998C0680021C4F293
:10139000FF71884240F04781FFE72A980068299949
:1013A000096809030029199006D1FFE72998006808
:1013B000C0F38460189016E02998006890FAA0F0B5
:1013C0002E902E98002804D1FFE720208DF8BF0032
:1013D00005E02E98B0FA80F08DF8BF00FFE79DF889
:1013E000BF001890FFE71898013000F01F0009288F
:1013F00000F28580FFE7299800680003002806D1E5
:10140000FFE729980068C0F38460179016E02998D8
:10141000006890FAA0F030903098002804D1FFE7DF
:1014200020208DF8C70005E03098B0FA80F08DF8E4
:10143000C700FFE79DF8C7001790FFE71798013036
:1014400000F01F00800629990968090300291690F9
:1014500006D1FFE729980068C0F38460159016E074
:101460002998006890FAA0F032903298002804D1B0
:10147000FFE720208DF8CF0005E03298B0FA80F029
:101480008DF8CF00FFE79DF8CF001590FFE7159886
:10149000013000F01F00012101FA00F01699084305
:1014A000299A12681203002A149006D1FFE729989E
:1014B0000068C0F38460139016E02998006890FAE1
:1014C000A0F034903498002804D1FFE720208DF854
:1014D000D70005E03498B0FA80F08DF8D700FFE728
:1014E0009DF8D7001390FFE71398013000F01F001C
:1014F00000EB4000149941EA0050129089E02998CD
:1015000000680003002806D1FFE729980068C0F3AF
:101510008460119016E02998006890FAA0F0369047
:101520003698002804D1FFE720208DF8DF0005E081
:101530003698B0FA80F08DF8DF00FFE79DF8DF0005
:101540001190FFE71198013000F01F0080062999E3
:10155000096809030029109006D1FFE7299800685F
:10156000C0F384600F9016E02998006890FAA0F00C
:1015700038903898002804D1FFE720208DF8E70044
:1015800005E03898B0FA80F08DF8E700FFE79DF8A5
:10159000E7000F90FFE70F98013000F01F000121D6
:1015A00001FA00F010990843299A12681203002AE0
:1015B0000E9006D1FFE729980068C0F384600D9073
:1015C00016E02998006890FAA0F03A903A9800281E
:1015D00004D1FFE720208DF8EF0005E03A98B0FA3B
:1015E00080F08DF8EF00FFE79DF8EF000D90FFE72A
:1015F0000D98013000F01F0000EB40000021CFF6F5
:10160000206101EB00500E99084340F000701290E9
:10161000FFE7129829998A6819990C9008460C9945
:1016200006F096FBFFE72998C0780006002840F1F5
:101630006C81FFE72A980068012142F20002C4F29F
:10164000020290420B910CD0FFE72A9800684DF6F9
:101650000071CBF6FD710844B0FA80F040090B90A0
:10166000FFE70B98C00746F20031C5F602010028DB
:101670001CBF42F20031C4F20201084606F080FAB3
:1016800026902A9800684FF0010142F2000EC4F241
:10169000020E70450A910CD0FFE72A9800684DF6BB
:1016A0000071CBF6FD710844B0FA80F040090A9051
:1016B000FFE70A98C00746F20031C5F6020100288C
:1016C0001CBF42F20031C4F2020142F20030C4F207
:1016D0000200814214D1FFE742F20000C4F202008E
:1016E00006F0B2FA42F2001EC4F2020E09907046F1
:1016F00006F0AAFADDF824E040EA0E00089007E0C0
:1017000046F20000C5F6020006F09EFA0890FFE7D8
:101710000898002840F0EF80FFE729980068002132
:10172000CCF6843188425AD1FFE79DF89A00000632
:10173000002854D4FFE72A98006846F20001C5F655
:10174000020188424AD1FFE72A980068012142F24B
:101750000002C4F20202904207910CD0FFE72A98DF
:1017600000684DF60071CBF6FD710844B0FA80F0C8
:1017700040090790FFE70798C00746F20031C5F619
:10178000020100281CBF42F20031C4F20201269877
:1017900040F4000006900846069906F039FB40F236
:1017A0000400C2F2004000684FEA901042F6635114
:1017B000C0F23E51A0FB01014FEA91114FF0020E21
:1017C0000EEB410125910590FFE72598002804D0F4
:1017D000FFE7259801382590F7E7FFE78AE0299889
:1017E00000680021CCF2527188423CD1FFE79DF89D
:1017F0009B00C007002836D1FFE72A98006846F210
:101800000001C5F6020188422CD1FFE72A98006842
:10181000012142F20002C4F20202904204910CD073
:10182000FFE72A9800684DF60071CBF6FD71084479
:10183000B0FA80F040090490FFE70498C00746F230
:101840000031C5F6020100281CBF42F20031C4F28B
:101850000201269840F0807003900846039906F034
:10186000D7FAFFE745E0299800680021CCF6B87167
:1018700088423CD1FFE79DF89A004006002836D404
:10188000FFE72A98006846F20001C5F60201884287
:101890002CD1FFE72A980068012142F20002C4F22D
:1018A0000202904202910CD0FFE72A9800684DF6A0
:1018B0000071CBF6FD710844B0FA80F04009029047
:1018C000FFE70298C00746F20031C5F60201002882
:1018D0001CBF42F20031C4F20201269840F480009D
:1018E00001900846019906F093FAFFE700E0FFE750
:1018F000FFE7FFE708E02A98416D41F020014165CC
:1019000001208DF8A300FFE7FFE7FFE708E02A9832
:10191000416D41F02001416501208DF8A300FFE7F2
:10192000FFE72A98002180F85010FFE79DF8A300F8
:101930008DF8AF00FFE79DF8AF003CB080BD000020
:1019400082B001460190009102B070470000000093
:1019500082B001460190009102B070470000000083
:1019600082B0014601900198406D009102B070472D
:1019700082B00146019001980068006C009102B0AD
:10198000704700000000000080B590B001460F9045
:1019900000200E900F98006800680D900F98006866
:1019A00040680C900F980068012242F20003C4F2D4
:1019B00002039842069105920CD0FFE70F98006849
:1019C0004DF60071CBF6FD710844B0FA80F0400985
:1019D0000590FFE70598C00746F20031C5F6020101
:1019E00000281CBF42F20031C4F20201084606F092
:1019F000DFF807900D984FEA807000281BD5FFE7AD
:101A00000C988007002816D5FFE70F98406DC00698
:101A1000002806D4FFE70F98416D41F4006141654D
:101A2000FFE70F98FFF7C8F90F9800684FF0020E14
:101A3000C0F800E0FFE70D984007002806D5FFE753
:101A40000C9800F0040004280CD0FFE70D98000764
:101A5000002840F1A280FFE70C980007002840F121
:101A60009C80FFE70F98406DC006002806D4FFE772
:101A70000F98416D41F400714165FFE70F980068D0
:101A800006F01EF900287ED0FFE70F98006842F2AA
:101A90000011C4F20201884206D1FFE742F20000C1
:101AA000C4F20200049003E00F9800680490FFE77E
:101AB00004980F99096888420CD0FFE7079800281E
:101AC00008D0FFE70798052804D0FFE70798092802
:101AD00005D1FFE70F980068C068099018E00F98DB
:101AE000006842F20011C4F20201884206D1FFE709
:101AF00042F20000C4F20200039003E00F98006875
:101B00000390FFE7039808900898C0680990FFE7E2
:101B1000099800F40050B0F5005F33D0FFE70F984C
:101B200000680068000700282BD5FFE70F980068C1
:101B300006F0AEF8002818D1FFE70F98006841685A
:101B400021F00C0141600F98416D21F480714165D5
:101B50000F98406DC004002806D4FFE70F98416D30
:101B600041F001014165FFE70AE00F98416D41F046
:101B7000100141650F98816D41F001018165FFE71A
:101B8000FFE7FFE7FFE70F98FFF7DAFE0F9800681F
:101B90004FF00C0EC0F800E0FFE70D98800600281B
:101BA00006D5FFE70C9800F0200020280CD0FFE7B6
:101BB0000D984006002840F1B980FFE70C984006D8
:101BC000002840F1B380FFE70F98406DC006002861
:101BD00006D4FFE70F98416D41F400514165FFE7DE
:101BE0000F98006805F0FCFF0B900F98006806F056
:101BF00067F80A900F98006842F2001EC4F2020EC5
:101C0000704506D1FFE742F20000C4F202000290E4
:101C100003E00F9800680290FFE702980F990968A7
:101C200088420CD0FFE70798002808D0FFE7079804
:101C3000062804D0FFE70798072805D1FFE70F988B
:101C40000068C068099018E00F98006842F200111F
:101C5000C4F20201884206D1FFE742F20000C4F25A
:101C60000200019003E00F9800680190FFE70198DF
:101C700008900898C0680990FFE70B9800284BD09F
:101C8000FFE79DF82700800700280AD5FFE70A989C
:101C9000002840D0FFE79DF82500800600283AD4B0
:101CA000FFE70F98006800684006002832D5FFE77C
:101CB0009DF82600800600282BD4FFE70F980068C7
:101CC00005F082FF002818D1FFE70F9800684168EF
:101CD00021F0600141600F98416D21F48051416510
:101CE0000F98406DC005002806D4FFE70F98416D9E
:101CF00041F001014165FFE70AE00F98416D41F0B5
:101D0000100141650F98816D41F001018165FFE788
:101D1000FFE7FFE7FFE7FFE70F98FFF755F80F989A
:101D200000684FF0600EC0F800E0FFE70D98000675
:101D3000002812D5FFE70C98000600280DD5FFE714
:101D40000F98416D41F4803141650F9800F0B4FA6D
:101D50000F98006880210160FFE70D98C0050028FA
:101D600013D5FFE70C98C00500280ED5FFE70F98A4
:101D7000416D41F4003141650F98FFF735F80F9838
:101D800000684FF480710160FFE70D98800500281E
:101D900013D5FFE70C98800500280ED5FFE70F98B4
:101DA000416D41F4802141650F98FFF725F80F98A8
:101DB00000684FF400710160FFE70D98C00600282D
:101DC00061D5FFE70C98C00600285CD5FFE70F98A7
:101DD000006B002803D1FFE701200E903CE007983C
:101DE00000282DD0FFE70F980068012142F2000281
:101DF000C4F20202904200910CD0FFE70F980068F5
:101E00004DF60071CBF6FD710844B0FA80F0400940
:101E10000090FFE70098C00746F20031C5F60201C6
:101E200000281CBF42F20031C4F20201084605F04E
:101E3000B3FE002803D0FFE701200E90FFE70AE081
:101E40000F980068C0688007002803D0FFE70120D2
:101E50000E90FFE7FFE7FFE70E9801280ED1FFE79E
:101E60000F98416D41F4806141650F98816D41F09B
:101E7000020181650F98FFF76BFDFFE70F9800687F
:101E800010210160FFE70D984005002818D5FFE7F5
:101E90000C984005002813D5FFE70F98416D41F4D9
:101EA000804141650F98816D41F0080181650F986F
:101EB00000684FF4806101600F98FEF78DFFFFE727
:101EC00010B080BD0000000010B590B001460E902B
:101ED00000208DF837000A900E980028079104D151
:101EE000FFE701208DF83F00E2E10E98C06800286E
:101EF00007D0FFE70E98007F012801D1FFE7FFE739
:101F0000FFE70E98406D00280CD1FFE70E9800F017
:101F1000DBF90E984FF0000EC0F858E00E9880F8EC
:101F200050E0FFE70E98006805F076FE002805D027
:101F3000FFE70E98006805F0EFFDFFE70E980068D8
:101F400005F09AFE00281FD1FFE70E98006805F003
:101F500003FE40F20400C2F200400068800942F62D
:101F6000635EC0F23E5EA0FB0E0E012101EB9E11EE
:101F70000A910690FFE70A98002804D0FFE70A9824
:101F800001380A90F7E7FFE70E98006805F074FE45
:101F900000280ED1FFE70E98416D41F01001416518
:101FA0000E98816D41F00101816501208DF83700A7
:101FB000FFE70E98006805F06BFE0B900E98406DE1
:101FC000C006002800F16681FFE70B98002840F06A
:101FD0006181FFE70E98406D40F0020020F48070B0
:101FE0000E9948650E98006805F02EFE002876D1FF
:101FF000FFE70E980068012142F20002C4F20202DB
:10200000904205910CD0FFE70E9800684DF60071E4
:10201000CBF6FD710844B0FA80F040090590FFE767
:102020000598C00746F20031C5F6020100281CBF22
:1020300042F20031C4F2020142F20030C4F2020066
:10204000814214D1FFE742F20000C4F2020005F021
:10205000FBFD42F2001EC4F2020E0490704605F031
:10206000F3FDDDF810E040EA0E00039007E046F2D1
:102070000000C5F6020005F0E7FD0390FFE70398B6
:1020800000282BD1FFE70E980068012142F20002E0
:10209000C4F20202904202910CD0FFE70E98006851
:1020A0004DF60071CBF6FD710844B0FA80F040099E
:1020B0000290FFE70298C00746F20031C5F6020120
:1020C00000281CBF42F20031C4F202010E984068A1
:1020D00001900846019905F087FEFFE7FFE700F051
:1020E00003FE41F2040E704513D3FFE70E9880689B
:1020F00010280ED1FFE70E98417D026B42EA413174
:1021000082681143007F41EA004040F00C000C90CF
:102110000BE00E98417D026B42EA41318268114327
:10212000007F41EA00400C90FFE70E98007F0128F5
:102130000BD1FFE70E98006A0021CFF6FE7101EB8C
:1021400040400C9908430C90FFE70E98406A002825
:102150000AD0FFE70E98416A806A01F4787108435B
:102160000C9908430C90FFE70E980068C0684CF289
:102170000301CFF6F07108400C9908430E990968E5
:10218000C8600E98006805F083FD09900E980068FD
:1021900005F01AFD0890099800285AD1FFE7089821
:1021A000002856D1FFE70E98017DC06A40EA8130D1
:1021B0000C900E980068C06844F2030188430C99A3
:1021C00008430E990968C8600E9890F838000128F5
:1021D0002AD1FFE70E98406A002805D0FFE70E9845
:1021E000806A002801D1FFE7FFE70E9800680069C8
:1021F0004FF61E01CFF6004108400E990A68CB6BDE
:10220000D1F840C0D1F844E00024CFF6FF7404EBCD
:10221000034343EA0C0343EA0E03896C1943084362
:1022200040F00100106106E00E980068016921F09D
:1022300001010161FFE70E980068006920F070401D
:102240000E990A68496B084310610E98FEF7F4FA7C
:10225000FFE70E98C06801280CD1FFE70E980068D0
:10226000006B20F00F000E990A6889690139084354
:10227000106306E00E980068016B21F00F01016306
:10228000FFE70E98406D40F0010020F002000E992B
:10229000486508E00E98416D41F01001416501204C
:1022A0008DF83700FFE79DF837008DF83F00FFE716
:1022B0009DF83F0010B010BD82B001460190009122
:1022C00002B070470000000080B5BEB001463D90EE
:1022D00000203C903B903A903990389008A8C0225A
:1022E00005911146FEF72CF83D98006842F2000176
:1022F000C4F20201884255D1FFE7002009904FF453
:102300000021089119210A914FF4B4710B91052114
:102310000C9102210D910E910F901090119031901F
:1023200008A802F021F9002803D0FFE7FEF7C0FC5F
:10233000FFE7FFE744F2D840C5F60200016841F02C
:1023400020010160006800F02000079007980490C9
:10235000FFE7FFE744F2E040C5F60200016841F004
:1023600001010160006800F00100069006980390EA
:10237000FFE7402038900320399000203A90002158
:10238000C5F6020138AA02900846114600F098FAF4
:10239000122001900299029A00F0EEFD019800F0DF
:1023A000DFFDFFE73EB080BD80B58EB00A46034634
:1023B0000C900B910C980068012142F2000CC4F2C1
:1023C000020C60450592049303910CD0FFE70C9832
:1023D00000684DF60071CBF6FD710844B0FA80F04C
:1023E00040090390FFE70398C00746F20031C5F6A5
:1023F000020100281CBF42F20031C4F2020108466B
:1024000005F0D6FB06900C980069082803D1FFE779
:102410000820099056E00698002808D0FFE70698A3
:10242000052804D0FFE70698092814D1FFE70C9887
:102430000068C068C007002809D0FFE70C98416D0C
:1024400041F02001416501208DF83700F9E00420BA
:102450000990FFE735E00C980068012142F2000284
:10246000C4F20202904202910CD0FFE70C9800687F
:102470004DF60071CBF6FD710844B0FA80F04009CA
:102480000290FFE70298C00746F20031C5F602014C
:1024900000281CBF42F20031C4F20201084605F0D8
:1024A0007BFB002809D0FFE70C98416D41F020012B
:1024B000416501208DF83700C3E004200990FFE753
:1024C000FFE7FFE700F018FC0A90FFE70C980068B0
:1024D0000068099908422DD1FFE70B9801300028C8
:1024E00027D0FFE700F008FCDDF828E0A0EB0E00A5
:1024F000DDF82CE0704504D8FFE70B98002817D1D1
:10250000FFE70C9800680068099908420FD1FFE7BF
:102510000C98416D41F004014165FFE70C980021E2
:1025200080F85010FFE703208DF8370089E0FFE7BF
:10253000FFE7CBE70C98416D41F4007141650C98C1
:10254000006805F0BDFB00281FD0FFE70C98407D18
:1025500000281AD1FFE70C980068006800070028DF
:1025600012D5FFE70C98416D21F4807141650C98FC
:10257000406DC004002806D4FFE70C98416D41F07F
:1025800001014165FFE7FFE7FFE70C98006842F2B1
:102590000011C4F20201884206D1FFE742F20000B6
:1025A000C4F20200019003E00C9800680190FFE77C
:1025B00001980C99096888420CD0FFE7069800281A
:1025C00008D0FFE70698052804D0FFE706980928F9
:1025D00005D1FFE70C980068C068089018E00C98D7
:1025E000006842F20011C4F20201884206D1FFE7FE
:1025F00042F20000C4F20200009003E00C98006870
:102600000090FFE7009807900798C0680890FFE7E0
:102610000998082805D1FFE70C9800680821016097
:102620000BE09DF821004006002805D4FFE70C9838
:1026300000680C210160FFE7FFE700208DF83700FC
:10264000FFE79DF837000EB080BD000000000000DD
:1026500080B58AB00146089008980068012242F2CD
:102660000003C4F202039842049103920CD0FFE7E6
:10267000089800684DF60071CBF6FD710844B0FA79
:1026800080F040090390FFE70398C00746F200314D
:10269000C5F6020100281CBF42F20031C4F202015B
:1026A000084605F085FA05900898006805F0F0FAEC
:1026B000002840F0D080FFE7FFE7089890F850002E
:1026C000012804D1FFE702208DF82700CCE008980C
:1026D000012180F85010FFE7FFE70898FEF728FA7D
:1026E0008DF81F009DF81F00002840F0AC80FFE728
:1026F0000898406D40F4807040F601618843089965
:1027000048650898006842F20011C4F2020188424C
:1027100006D1FFE742F20000C4F20200029003E09B
:10272000089800680290FFE70298089909688842B3
:1027300004D0FFE70598002806D1FFE70898416D0F
:1027400021F480114165FFE70898406DC00400281E
:1027500006D5FFE70898816D21F00601816503E049
:10276000089800218165FFE7089800681C21016036
:10277000FFE70898002180F85010FFE708980068EC
:1027800042F20011C4F20201884206D1FFE742F290
:102790000000C4F20200019003E008980068019074
:1027A000FFE701980899096888420CD0FFE705986F
:1027B000002808D0FFE70598052804D0FFE7059812
:1027C000092815D1FFE708980068C0688001002833
:1027D00009D5FFE70898406D40F4805020F4005080
:1027E00008994865FFE70898006805F0A1FA29E014
:1027F0000898416D41F4801141650898006842F2E3
:102800000011C4F20201884206D1FFE742F2000043
:10281000C4F20200009003E0089800680090FFE70F
:10282000009806900698C0688001002809D5FFE747
:102830000898406D40F4805020F400500899486595
:10284000FFE7FFE706E0FFE70898002180F8501057
:10285000FFE7FFE703E002208DF81F00FFE79DF888
:102860001F008DF82700FFE79DF827000AB080BD04
:1028700080B584B001460390009100F03DFA0290CB
:102880000398019001980130002809D0FFE740F239
:102890000C00C2F200400078019908440190FFE763
:1028A000FFE700F029FADDF808E0A0EB0E00DDF804
:1028B00004E0704501D2FFE7F3E704B080BD0000FB
:1028C00093B00A4603461290119100201090802088
:1028D000C5F600000D900B920A93FFE7119800686F
:1028E0001099C840002800F0D681FFE711980068D1
:1028F0001099012202FA01F108400F900F98002868
:1029000000F0C581FFE71198406800F0030001283E
:1029100007D0FFE71198406800F0030002282FD18C
:10292000FFE7129880680E9010984000032101FA8A
:1029300000F00E9921EA00000E901198C0681099DD
:10294000490088400E9908430E900E9812998860AD
:10295000129840680E901098012101FA00F00E992B
:1029600021EA00000E9011984068C0F30010109901
:1029700088400E9908430E900E9812994860FFE720
:102980001198406800F00300032818D0FFE7129860
:10299000C0680E9010984000032101FA00F00E99D3
:1029A00021EA00000E901198806810994900884033
:1029B0000E9908430E900E981299C860FFE711987F
:1029C000406800F00300022826D1FFE71298109912
:1029D0006FF0030202EA51010844006A0E90109859
:1029E00000F0070080000F2101FA00F00E9921EAA3
:1029F00000000E9011980069109901F007018900FC
:102A000088400E9908430E900E981299109B02EA86
:102A1000530211440862FFE7129800680E90109864
:102A20004000032101FA00F00E9921EA00000E9007
:102A30001198406800F003001099490088400E99F1
:102A400008430E900E9812990860119880798007BB
:102A5000002800F01B81FFE7FFE744F2F440C5F6D1
:102A60000200016841F002010160006800F002000C
:102A70000C900C980990FFE7109820F0030040F2AA
:102A80000841C5F6000140580E90109800F0030070
:102A900080000F2101FA00F00E9921EA00000E904B
:102AA00012980021C5F60201884203D1FFE70020F9
:102AB00008907AE0129840F20041C5F6020188427F
:102AC00003D1FFE7012007906CE0129840F6000167
:102AD000C5F60201884203D1FFE7022006905EE0BE
:102AE000129840F60041C5F60201884203D1FFE783
:102AF0000320059050E0129841F20001C5F6020152
:102B0000884203D1FFE70420049042E0129841F28A
:102B10000041C5F60201884203D1FFE7052003907A
:102B200034E0129841F60001C5F60201884203D153
:102B3000FFE70620029026E0129841F60041C5F614
:102B40000201884203D1FFE70720019018E01298A4
:102B500042F20001C5F60201884203D1FFE70820D6
:102B600000900AE0129842F20041C5F602010A22E2
:102B7000884208BF09220092FFE700980190FFE712
:102B800001980290FFE702980390FFE703980490F2
:102B9000FFE704980590FFE705980690FFE7069881
:102BA0000790FFE707980890FFE70898109901F051
:102BB0000301890088400E9908430E900E981099E1
:102BC00021F0030140F20842C5F6000288504FF0A0
:102BD000B04000680E900F980E9921EA00000E9008
:102BE00011988079C006002805D5FFE70F980E9947
:102BF00008430E90FFE70E984FF0B04108600420A4
:102C0000C5F6000000680E900F980E9921EA0000AA
:102C10000E90119880798006002805D5FFE70F985F
:102C20000E9908430E90FFE70E980421C5F60001A7
:102C300008600D9840680E900F980E9921EA0000E8
:102C40000E90119880798007002805D5FFE70F982E
:102C50000E9908430E90FFE70E980D9948600D9865
:102C600000680E900F980E9921EA00000E901198BE
:102C70008079C007002805D0FFE70F980E99084318
:102C80000E90FFE70E980D990860FFE7FFE7109898
:102C90000130109022E613B07047000000000000E1
:102CA00080B585B013468C4686460490ADF80E106C
:102CB0008DF80D209DF80D0000280293CDF804C07A
:102CC000CDF800E005D0FFE7BDF80E00049988615B
:102CD00005E0BDF80E00000404998861FFE705B027
:102CE00080BD00000000000041F20000C5F6004079
:102CF0000068000C7047000040F2C810C2F20040AB
:102D0000006870470000000040F20C00C2F2004072
:102D1000007840F2C811C2F200410A68104408600D
:102D2000704700000000000080B582B0032000F072
:102D300047F902F059FF44F2184EC5F6020EDEF8CC
:102D40000010C1F303214AF60A52C0F60002515C9A
:102D500001F01F01C84000900098DEF8001001F05B
:102D60000F01515C01F01F01C84040F20801C2F29E
:102D700000410860009840F20401C2F2004108607E
:102D80000F2000F015F8002804D0FFE701208DF88F
:102D9000070006E000F0D0F84FF0000E8DF807E0D5
:102DA000FFE79DF8070002B080BD000000000000B2
:102DB00080B584B00146029040F20C00C2F200409F
:102DC00000780028019104D1FFE701208DF80F0061
:102DD00031E040F20400C2F20040006840F20C0111
:102DE000C2F2004109784FF47A72B2FBF1F1B0FB04
:102DF000F1F003F061FE002804D0FFE701208DF818
:102E00000F0018E002980F280DD8FFE702994FF045
:102E1000FF30002200F0B0F8029840F21001C2F238
:102E20000041086003E001208DF80F0003E000205E
:102E30008DF80F00FFE79DF80F0004B080BD000083
:102E400080B582B001460190019840784EF69852C4
:102E5000CEF20002106001980078002800912BD07B
:102E6000FFE7019840684EF69C51CEF200010860E1
:102E70000198017B0907C27A41EA02610278037A6C
:102E800090F809C090F80AE041EACE4190F80DE0D0
:102E900041EA8E4190F80EE041EA4E41C07B41EAA2
:102EA000004040EA0C2040EA430010434EF6A05197
:102EB000CEF2000108600BE04EF69C50CEF200000E
:102EC000002101604EF6A050CEF200000160FFE745
:102ED00002B080BD00000000BFF35F8F4EF62450AB
:102EE000CEF20000016821F4803101604EF694506A
:102EF000CEF20000002101607047000000000000D9
:102F000082B001460190019840F001004EF69452C3
:102F1000CEF2000210604EF62450CEF2000002689D
:102F200042F480320260BFF34F8FBFF36F8F009186
:102F300002B070470000000082B0FFE744F2F440A6
:102F4000C5F60200016841F002010160006800F06E
:102F50000200019001980090FFE702B07047000066
:102F600080B582B00146ADF80600BDF906000091BB
:102F700006F0B2FF02B080BD80B58AB013468C4621
:102F80008646ADF82600089107920593CDF810C04B
:102F9000CDF80CE006F0BCFF0690BDF926000699BE
:102FA000089A079B0290084611461A4605F0DCF97C
:102FB000029901900846019906F0B2FF0AB080BD5F
:102FC00080B582B0014601900198009106F0D0FFD3
:102FD00002B080BD0000000080B584B001460290C0
:102FE00044F60C00C5F60200006800F00400002260
:102FF000B2EB900F009113D1FFE744F60C00C5F639
:103000000200006800F007000299884204D0FFE740
:1030100001208DF80F0030E000208DF80F002CE02B
:1030200044F60C00C5F60200016821F00701029A7F
:1030300011430160FFF760FE0190FFE744F60400D2
:10304000C5F60200006800F400500021B1EB503FCB
:103050000FD1FFE7FFF750FEDDF804E0A0EB0E0014
:10306000B0F57A7F04D9FFE701208DF80F0004E066
:10307000E4E700208DF80F00FFE79DF80F0004B093
:1030800080BD00000000000080B502F051FD44F258
:10309000204EC5F6020EDEF800E0CEF3021E4AF620
:1030A0000A51C0F6000111F80E1001F01F01C840CE
:1030B00080BD00000000000089B00146089044F285
:1030C0002840C5F60200026802F003020792006879
:1030D000C0F30510069044F22C40C5F602000068CB
:1030E00000F001000590059844F23442C5F6020252
:1030F000126892B2D208504300EE100AB8EE400AAD
:103100008DED030A06980028019100F01D81FFE76C
:1031100007980028009009D0FFE7009801286AD09E
:10312000FFE70098022800F08A80ACE044F20040FB
:10313000C5F60200006800F020000021B1EB501F2E
:1031400034D0FFE744F20040C5F602000068C0F347
:10315000C10049F20001C0F2D03121FA00F0049020
:103160009DED040AB8EE400A9DED061AB8EE411A2C
:1031700080EE010A44F23040C5F6020000686FF3A9
:103180005F2001EE100AB8EE411A9DED032A9FED73
:10319000743A82EE032A31EE021AB7EE002A31EEBB
:1031A000021A20EE010A8DED020A23E09DED060AC7
:1031B000B8EE400A9FED6C1A81EE000A44F23040EE
:1031C000C5F6020000686FF35F2001EE100AB8EE4A
:1031D000411A9DED032A9FED623A82EE032A31EEF9
:1031E000021AB7EE002A31EE021A20EE010A8DED26
:1031F000020AFFE76BE09DED060AB8EE400A9FED7C
:10320000591A81EE000A44F23040C5F60200006807
:103210006FF35F2001EE100AB8EE411A9DED032A0C
:103220009FED4F3A82EE032A31EE021AB7EE002AE2
:1032300031EE021A20EE010A8DED020A47E09DED03
:10324000060AB8EE400A9FED451A81EE000A44F2E4
:103250003040C5F6020000686FF35F2001EE100AEF
:10326000B8EE411A9DED032A9FED3D3A82EE032A06
:1032700031EE021AB7EE002A31EE021A20EE010AF0
:103280008DED020A23E09DED060AB8EE400A9FED9F
:10329000361A81EE000A44F23040C5F6020000689A
:1032A0006FF35F2001EE100AB8EE411A9DED032A7C
:1032B0009FED2B3A82EE032A31EE021AB7EE002A76
:1032C00031EE021A20EE010A8DED020AFFE79DEDB4
:1032D000020A44F23040C5F60200016889B2490A88
:1032E00001EE101AB8EE411AB7EE002A31EE021ABA
:1032F00080EE010A0899BCEEC00A81ED000A9DED3E
:10330000020A0168C1F3064101EE101AB8EE411A33
:1033100031EE021A80EE010A0899BCEEC00A81ED76
:10332000010A9DED020A0068C0F3066001EE100A72
:10333000B8EE411A31EE021A80EE010A0898BCEE8E
:10334000C00A80ED020A07E0089800210160089891
:10335000416008988160FFE709B0704720BCBE4B10
:10336000000000460024744A0024744C0000000051
:1033700089B00146089044F22840C5F60200026870
:1033800002F0030207920068C0F30530069044F291
:103390002C40C5F602000068C0F3001005900598A7
:1033A00044F23C42C5F60202126892B2D20850437F
:1033B00000EE100AB8EE400A8DED030A06980028C8
:1033C000019100F01D81FFE707980028009009D0C7
:1033D000FFE7009801286AD0FFE70098022800F074
:1033E0008A80ACE044F20040C5F60200006800F0BC
:1033F00020000021B1EB501F34D0FFE744F2004021
:10340000C5F602000068C0F3C10049F20001C0F235
:10341000D03121FA00F004909DED040AB8EE400A84
:103420009DED061AB8EE411A80EE010A44F23840CA
:10343000C5F6020000686FF35F2001EE100AB8EED7
:10344000411A9DED032A9FED743A82EE032A31EE74
:10345000021AB7EE002A31EE021A20EE010A8DEDB3
:10346000020A23E09DED060AB8EE400A9FED6C1AB1
:1034700081EE000A44F23840C5F6020000686FF39E
:103480005F2001EE100AB8EE411A9DED032A9FED70
:10349000623A82EE032A31EE021AB7EE002A31EECA
:1034A000021A20EE010A8DED020AFFE76BE09DEDA6
:1034B000060AB8EE400A9FED591A81EE000A44F25E
:1034C0003840C5F6020000686FF35F2001EE100A75
:1034D000B8EE411A9DED032A9FED4F3A82EE032A82
:1034E00031EE021AB7EE002A31EE021A20EE010A7E
:1034F0008DED020A47E09DED060AB8EE400A9FED09
:10350000451A81EE000A44F23840C5F60200006810
:103510006FF35F2001EE100AB8EE411A9DED032A09
:103520009FED3D3A82EE032A31EE021AB7EE002AF1
:1035300031EE021A20EE010A8DED020A23E09DED24
:10354000060AB8EE400A9FED351A81EE000A44F2F1
:103550003840C5F6020000686FF35F2001EE100AE4
:10356000B8EE411A9DED032A9FED2B3A82EE032A15
:1035700031EE021AB7EE002A31EE021A20EE010AED
:103580008DED020AFFE79DED020A44F23840C5F6D0
:103590000200016889B2490A01EE101AB8EE411A18
:1035A000B7EE002A31EE021A80EE010A0899BCEE4D
:1035B000C00A81ED000A9DED020A0168C1F30641CF
:1035C00001EE101AB8EE411A31EE021A80EE010A2D
:1035D0000899BCEEC00A81ED010A9DED020A00685F
:1035E000C0F3066001EE100AB8EE411A31EE021A7D
:1035F00080EE010A0898BCEEC00A80ED020A07E0DE
:103600000898002101600898416008988160FFE7F0
:1036100009B0704720BCBE4B000000460024744A2D
:103620000024744C0000000089B00146089044F268
:103630002840C5F60200026802F003020792006803
:10364000C0F30550069044F22C40C5F60200006815
:10365000C0F300200590059844F24442C5F60202EA
:10366000126892B2D208504300EE100AB8EE400A37
:103670008DED030A06980028019100F01D81FFE7F7
:1036800007980028009009D0FFE7009801286AD029
:10369000FFE70098022800F08A80ACE044F2004086
:1036A000C5F60200006800F020000021B1EB501FB9
:1036B00034D0FFE744F20040C5F602000068C0F3D2
:1036C000C10049F20001C0F2D03121FA00F00490AB
:1036D0009DED040AB8EE400A9DED061AB8EE411AB7
:1036E00080EE010A44F24040C5F6020000686FF324
:1036F0005F2001EE100AB8EE411A9DED032A9FEDFE
:10370000743A82EE032A31EE021AB7EE002A31EE45
:10371000021A20EE010A8DED020A23E09DED060A51
:10372000B8EE400A9FED6C1A81EE000A44F2404068
:10373000C5F6020000686FF35F2001EE100AB8EED4
:10374000411A9DED032A9FED623A82EE032A31EE83
:10375000021AB7EE002A31EE021A20EE010A8DEDB0
:10376000020AFFE76BE09DED060AB8EE400A9FED06
:10377000591A81EE000A44F24040C5F60200006882
:103780006FF35F2001EE100AB8EE411A9DED032A97
:103790009FED4F3A82EE032A31EE021AB7EE002A6D
:1037A00031EE021A20EE010A8DED020A47E09DED8E
:1037B000060AB8EE400A9FED451A81EE000A44F26F
:1037C0004040C5F6020000686FF35F2001EE100A6A
:1037D000B8EE411A9DED032A9FED3D3A82EE032A91
:1037E00031EE021AB7EE002A31EE021A20EE010A7B
:1037F0008DED020A23E09DED060AB8EE400A9FED2A
:10380000351A81EE000A44F24040C5F60200006815
:103810006FF35F2001EE100AB8EE411A9DED032A06
:103820009FED2B3A82EE032A31EE021AB7EE002A00
:1038300031EE021A20EE010A8DED020AFFE79DED3E
:10384000020A44F24040C5F60200016889B2490A02
:1038500001EE101AB8EE411AB7EE002A31EE021A44
:1038600080EE010A0899BCEEC00A81ED000A9DEDC8
:10387000020A0168C1F3064101EE101AB8EE411ABE
:1038800031EE021A80EE010A0899BCEEC00A81ED01
:10389000010A9DED020A0068C0F3066001EE100AFD
:1038A000B8EE411A31EE021A80EE010A0898BCEE19
:1038B000C00A80ED020A07E008980021016008981C
:1038C000416008988160FFE709B0704720BCBE4B9B
:1038D000000000460024744A0024744C00000000DC
:1038E00080B59CB00A4603461B911A901A981B9902
:1038F00080F48070084300280C930B9240F0AA805B
:10390000FFE744F25040C5F60200006800F00700EF
:103910000F900F9804280A9000F297800A99DFE828
:1039200001F00316298E3C0044F20040C5F6020067
:1039300000688001002806D5FFE717A8FFF7BCFB49
:103940001898109002E000201090FFE780E044F209
:103950000040C5F6020000680001002806D5FFE718
:1039600014A8FFF705FD1498109002E000201090B5
:10397000FFE76DE044F20040C5F6020000688000F9
:10398000002806D5FFE711A8FFF74EFE119810900A
:1039900002E000201090FFE75AE044F24C40C5F6E8
:1039A0000200006800F040500E9044F20040C5F65E
:1039B000020000684007002813D5FFE70E98002892
:1039C0000FD1FFE744F20040C5F602000068C0F3E3
:1039D000C10049F20001C0F2D03121FA00F010908C
:1039E0002CE044F20040C5F602000068C005002843
:1039F0000BD5FFE70E98B0F1805F06D1FFE740F6E8
:103A00000010C0F23D00109017E044F20040C5F6EF
:103A100002000068800300280BD5FFE70E98B0F184
:103A2000005F06D1FFE747F64000C0F27D1010901E
:103A300002E000201090FFE7FFE7FFE708E048F210
:103A40000000C0F2BB00109002E000201090FFE7E1
:103A500000F085BD1A981B9980F400700843002877
:103A600040F0B680FFE744F25040C5F6020000681F
:103A700000F4E0700F900F980028099012D0FFE733
:103A80000998402821D0FFE70998802830D0FFE727
:103A90000998C02800F09180FFE70998B0F5807F71
:103AA00039D090E044F20040C5F602000068800181
:103AB000002806D5FFE717A8FFF7FEFA1898109020
:103AC00002E000201090FFE780E044F20040C5F6DD
:103AD000020000680001002806D5FFE714A8FFF7E0
:103AE00047FC1498109002E000201090FFE76DE072
:103AF00044F20040C5F6020000688000002806D5A8
:103B0000FFE711A8FFF790FD1198109002E0002048
:103B10001090FFE75AE044F24C40C5F602000068FE
:103B200000F040500E9044F20040C5F602000068DC
:103B30004007002813D5FFE70E9800280FD1FFE7B4
:103B400044F20040C5F602000068C0F3C10049F22B
:103B50000001C0F2D03121FA00F010902CE044F2C4
:103B60000040C5F602000068C00500280BD5FFE73D
:103B70000E98B0F1805F06D1FFE740F60010C0F26A
:103B80003D00109017E044F20040C5F602000068C6
:103B9000800300280BD5FFE70E98B0F1005F06D137
:103BA000FFE747F64000C0F27D10109002E00020D1
:103BB0001090FFE7FFE7FFE708E048F20000C0F2DF
:103BC000BB00109002E000201090FFE700F0C6BCA0
:103BD0001A981B9980F480600843002840F0B9804F
:103BE000FFE744F25840C5F60200006800F46000A8
:103BF0000F900F980028089015D0FFE70898B0F5AF
:103C0000001F23D0FFE70898B0F5800F31D0FFE701
:103C10000898B0F5C00F00F09180FFE70898B0F564
:103C2000000F39D090E044F20040C5F60200006871
:103C30008001002806D5FFE717A8FFF73DFA18987E
:103C4000109002E000201090FFE780E044F2004076
:103C5000C5F6020000680001002806D5FFE714A899
:103C6000FFF786FB1498109002E000201090FFE709
:103C70006DE044F20040C5F60200006880000028B4
:103C800006D5FFE711A8FFF7CFFC1198109002E0CE
:103C900000201090FFE75AE044F24C40C5F60200C5
:103CA000006800F040500E9044F20040C5F602005B
:103CB00000684007002813D5FFE70E9800280FD1B1
:103CC000FFE744F20040C5F602000068C0F3C100FF
:103CD00049F20001C0F2D03121FA00F010902CE03E
:103CE00044F20040C5F602000068C00500280BD56C
:103CF000FFE70E98B0F1805F06D1FFE740F60010B5
:103D0000C0F23D00109017E044F20040C5F60200FA
:103D10000068800300280BD5FFE70E98B0F1005F24
:103D200006D1FFE747F64000C0F27D10109002E098
:103D300000201090FFE7FFE7FFE708E048F20000EF
:103D4000C0F2BB00109002E000201090FFE700F0EE
:103D500004BC1A981B9980F400600843002840F0C6
:103D6000B880FFE744F25840C5F60200006800F052
:103D7000E0600F900F980028079015D0FFE7079894
:103D8000B0F1807F23D0FFE70798B0F1007F31D0FA
:103D9000FFE70798B0F1407F00F09180FFE70798B8
:103DA000B0F1806F39D090E044F20040C5F60200D7
:103DB00000688001002806D5FFE717A8FFF77CF907
:103DC0001898109002E000201090FFE780E044F285
:103DD0000040C5F6020000680001002806D5FFE794
:103DE00014A8FFF7C5FA1498109002E00020109074
:103DF000FFE76DE044F20040C5F602000068800075
:103E0000002806D5FFE711A8FFF70EFC11981090C7
:103E100002E000201090FFE75AE044F24C40C5F663
:103E20000200006800F040500E9044F20040C5F6D9
:103E3000020000684007002813D5FFE70E9800280D
:103E40000FD1FFE744F20040C5F602000068C0F35E
:103E5000C10049F20001C0F2D03121FA00F0109007
:103E60002CE044F20040C5F602000068C0050028BE
:103E70000BD5FFE70E98B0F1805F06D1FFE740F663
:103E80000010C0F23D00109017E044F20040C5F66B
:103E900002000068800300280BD5FFE70E98B0F100
:103EA000005F06D1FFE747F64000C0F27D1010909A
:103EB00002E000201090FFE7FFE7FFE708E048F28C
:103EC0000000C0F2BB00109002E000201090FFE75D
:103ED00042E31A981B9980F480500843002840F070
:103EE000B880FFE744F25040C5F60200006800F4D5
:103EF000E0400D900D980028069015D0FFE7069839
:103F0000B0F5805F23D0FFE70698B0F5005F31D0B1
:103F1000FFE70698B0F5405F00F09180FFE7069854
:103F2000B0F5804F39D090E044F20040C5F6020071
:103F300000688001002806D5FFE717A8FFF7BCF846
:103F40001898109002E000201090FFE780E044F203
:103F50000040C5F6020000680001002806D5FFE712
:103F600014A8FFF705FA1498109002E000201090B2
:103F7000FFE76DE044F20040C5F6020000688000F3
:103F8000002806D5FFE711A8FFF74EFB1198109007
:103F900002E000201090FFE75AE044F24C40C5F6E2
:103FA0000200006800F040500E9044F20040C5F658
:103FB000020000684007002813D5FFE70E9800288C
:103FC0000FD1FFE744F20040C5F602000068C0F3DD
:103FD000C10049F20001C0F2D03121FA00F0109086
:103FE0002CE044F20040C5F602000068C00500283D
:103FF0000BD5FFE70E98B0F1805F06D1FFE740F6E2
:104000000010C0F23D00109017E044F20040C5F6E9
:1040100002000068800300280BD5FFE70E98B0F17E
:10402000005F06D1FFE747F64000C0F27D10109018
:1040300002E000201090FFE7FFE7FFE708E048F20A
:104040000000C0F2BB00109002E000201090FFE7DB
:1040500081E21A981B9980F400500843002840F030
:104060009780FFE744F25040C5F60200006800F474
:10407000E0200D900D980028059019D0FFE70598D5
:10408000B0F5803F18D0FFE70598B0F5003F26D087
:10409000FFE70598B0F5403F34D0FFE70598B0F54D
:1040A000802F4BD0FFE70598B0F5A02F59D06BE0DB
:1040B00001F06AFD10906AE044F20040C5F602008B
:1040C00000680001002806D5FFE714A8FFF750F9A3
:1040D0001598109002E000201090FFE757E044F29E
:1040E0000040C5F6020000688000002806D5FFE702
:1040F00011A8FFF799FA1298109002E00020109092
:10410000FFE744E044F20040C5F6020000684007C3
:1041100000280FD5FFE744F20040C5F60200006812
:10412000C0F3C10049F20001C0F2D03121FA00F021
:10413000109002E000201090FFE728E044F20040D9
:10414000C5F602000068C005002806D5FFE740F666
:104150000010C0F23D00109002E000201090FFE738
:1041600015E044F20040C5F6020000688003002814
:1041700006D5FFE747F64000C0F27D10109002E040
:1041800000201090FFE702E000201090FFE7E1E13F
:104190001A981B9980F400200843002840F094806E
:1041A000FFE744F25840C5F60200006800F44030D2
:1041B0000D900D98002804900AD0FFE70498B0F500
:1041C000803F18D0FFE70498B0F5003F26D077E095
:1041D00044F20040C5F6020000680001002806D540
:1041E000FFE714A8FFF7C4F81498109002E000202D
:1041F0001090FFE767E044F20040C5F60200006857
:104200008000002806D5FFE711A8FFF70DFA1398E4
:10421000109002E000201090FFE754E044F24C4080
:10422000C5F60200006800F040500E9044F20040D5
:10423000C5F6020000684007002813D5FFE70E9876
:1042400000280FD1FFE744F20040C5F602000068E5
:10425000C0F3C10049F20001C0F2D03121FA00F0F0
:1042600010902CE044F20040C5F602000068C00542
:1042700000280BD5FFE70E98B0F1805F06D1FFE76D
:1042800040F60010C0F23D00109017E044F20040EC
:10429000C5F602000068800300280BD5FFE70E98E2
:1042A000B0F1005F06D1FFE747F64000C0F27D1095
:1042B000109002E000201090FFE7FFE7FFE702E028
:1042C00000201090FFE744E11A981B9980F4803099
:1042D000084300283CD1FFE744F24C40C5F60200F9
:1042E000006800F480300D900D980028039005D0F0
:1042F000FFE70398B0F5803F13D025E044F200407B
:10430000C5F6020000688001002806D5FFE717A85F
:10431000FEF7D2FE1898109002E000201090FFE700
:1043200015E044F20040C5F60200006800010028D4
:1043300006D5FFE714A8FFF71BF81698109002E0C7
:1043400000201090FFE702E000201090FFE7FFE060
:104350001A981B9980F480400843002840F0978009
:10436000FFE744F25840C5F60200006800F0E04064
:104370000D900D980028029019D0FFE70298B0F137
:10438000805F18D0FFE70298B0F1005F26D0FFE70A
:104390000298B0F1405F34D0FFE70298B0F1804F4F
:1043A0004BD0FFE70298B0F1A04F59D06BE0FEF779
:1043B0006BFE10906AE044F20040C5F6020000680F
:1043C0000001002806D5FFE714A8FEF7D1FF1598D5
:1043D000109002E000201090FFE757E044F2004008
:1043E000C5F6020000688000002806D5FFE711A886
:1043F000FFF71AF91298109002E000201090FFE7E2
:1044000044E044F20040C5F602000068400700287E
:104410000FD5FFE744F20040C5F602000068C0F384
:10442000C10049F20001C0F2D03121FA00F0109031
:1044300002E000201090FFE728E044F20040C5F6BB
:1044400002000068C005002806D5FFE740F600100E
:10445000C0F23D00109002E000201090FFE715E050
:1044600044F20040C5F6020000688003002806D52B
:10447000FFE747F64000C0F27D10109002E00020F8
:104480001090FFE702E000201090FFE75FE01A982D
:104490001B9980F400400843002854D1FFE744F200
:1044A0005040C5F60200006800F040500D900D9895
:1044B000002801900AD0FFE70198B0F1805F18D082
:1044C000FFE70198B0F1005F26D038E044F20040E9
:1044D000C5F6020000688003002806D5FFE747F60E
:1044E0004000C0F27D10109002E000201090FFE725
:1044F00028E044F20040C5F6020000688001002870
:1045000006D5FFE717A8FEF7D7FD1898109002E030
:1045100000201090FFE715E044F20040C5F60200CD
:1045200000680001002806D5FFE714A8FEF720FF69
:104530001598109002E000201090FFE702E00020A4
:104540001090FFE702E000201090FFE7FFE7FFE791
:10455000FFE7FFE7FFE7FFE7FFE7FFE7FFE7109869
:104560001CB080BD0000000080B59EB001461C90CC
:1045700000208DF867008DF866001C98C078000751
:10458000002818914AD5FFE71C98806E00281790E4
:104590000FD0FFE71798B0F5801F13D0FFE71798EB
:1045A000B0F5001F16D0FFE71798B0F5401F19D0DF
:1045B00019E044F22C40C5F60200016841F40031D4
:1045C000016014E01C980830022103F011FF8DF8FF
:1045D00067000CE01C982830022103F0F5FF8DF8ED
:1045E000670004E003E001208DF86700FFE79DF815
:1045F000670000280CD1FFE744F25040C5F60200E6
:10460000016821F440111C9A926E1143016004E08C
:104610009DF867008DF86600FFE7FFE71C9840787B
:10462000C007002841D0FFE71C98806D0428169031
:1046300020D81699DFE801F0030C141C1D0044F289
:104640002C40C5F60200016841F40031016015E01C
:104650001C980830002103F0CBFE8DF867000DE0B8
:104660001C982830002103F0AFFF8DF8670005E0AB
:1046700004E003E001208DF86700FFE79DF8670084
:1046800000280CD1FFE744F25040C5F60200016853
:1046900021F007011C9A926D1143016004E09DF81E
:1046A00067008DF86600FFE7FFE71C9840788007F9
:1046B00000284DD5FFE71C98C06D0028159011D03B
:1046C000FFE71598402816D0FFE7159880281AD0E4
:1046D000FFE71598C0281ED0FFE71598B0F5807F3A
:1046E0001AD01AE044F22C40C5F60200016841F4E9
:1046F0000031016015E01C980830002103F078FEBD
:104700008DF867000DE01C982830002103F05CFF55
:104710008DF8670005E004E003E001208DF86700F4
:10472000FFE79DF8670000280CD1FFE744F25040F6
:10473000C5F60200016821F4E0711C9AD26D1143A4
:10474000016004E09DF867008DF86600FFE7FFE771
:104750001C9840784007002852D5FFE71C98D0F8F5
:10476000A8000028149014D0FFE71498B0F5001F9B
:1047700018D0FFE71498B0F5800F1BD0FFE714980E
:10478000B0F5C00F1ED0FFE71498B0F5000F1AD097
:104790001AE044F22C40C5F60200016841F40031F1
:1047A000016015E01C980830002103F021FE8DF80F
:1047B00067000DE01C982830002103F005FF8DF8FC
:1047C000670005E004E003E001208DF86700FFE7E3
:1047D0009DF8670000280DD1FFE744F25840C5F668
:1047E0000200016821F460011C9AD2F8A82011434C
:1047F000016004E09DF867008DF86600FFE7FFE7C1
:104800001C9840780007002852D5FFE71C98D0F884
:10481000AC000028139014D0FFE71398B0F1807F0C
:1048200018D0FFE71398B0F1007F1BD0FFE7139873
:10483000B0F1407F1ED0FFE71398B0F1806F1AD01F
:104840001AE044F22C40C5F60200016841F4003140
:10485000016015E01C980830002103F0C9FD8DF8B7
:1048600067000DE01C982830002103F0ADFE8DF8A4
:10487000670005E004E003E001208DF86700FFE732
:104880009DF8670000280DD1FFE744F25840C5F6B7
:104890000200016821F0E0611C9AD2F8AC201143BB
:1048A000016004E09DF867008DF86600FFE7FFE710
:1048B0001C98C0788007002840D5FFE71C98C06C82
:1048C000002812901ED0FFE71298102808D0FFE7AA
:1048D000129820280DD0FFE71298302811D012E04E
:1048E00044F22C40C5F60200016841F40031016039
:1048F0000DE01C980830022103F07AFD8DF8670066
:1049000005E004E003E001208DF86700FFE79DF873
:10491000670000280CD1FFE744F24C40C5F60200C6
:10492000016821F030011C9AD26C1143016004E04F
:104930009DF867008DF86600FFE7FFE71C98407858
:10494000C006002850D5FFE71C98006E0028119083
:1049500014D0FFE71198B0F5805F18D0FFE71198E9
:10496000B0F5005F1BD0FFE71198B0F5405F1ED097
:10497000FFE71198B0F5804F1AD01AE044F22C40AE
:10498000C5F60200016841F40031016015E01C9891
:104990000830002103F02CFD8DF867000DE01C9815
:1049A0002830002103F010FE8DF8670005E004E0D8
:1049B00003E001208DF86700FFE79DF867000028FD
:1049C0000CD1FFE744F25040C5F60200016821F423
:1049D000E0411C9A126E1143016004E09DF86700EB
:1049E0008DF86600FFE7FFE71C98407880060028F6
:1049F0004ED5FFE71C98406E0028109019D0FFE7B5
:104A00001098B0F5803F15D0FFE71098B0F5003F43
:104A100018D0FFE71098B0F5403F1BD0FFE7109883
:104A2000B0F5802F17D0FFE71098B0F5A02F13D066
:104A300013E016E01C980830012103F0D9FC8DF832
:104A400067000EE01C982830012103F0BDFD8DF8B1
:104A5000670006E005E004E003E001208DF8670050
:104A6000FFE79DF8670000280CD1FFE744F25040B3
:104A7000C5F60200016821F4E0211C9A526E114330
:104A8000016004E09DF867008DF86600FFE7FFE72E
:104A90001C9840784006002850D5FFE71C98D0F8B5
:104AA000B00000280F9019D0FFE70F98B0F1805F99
:104AB00015D0FFE70F98B0F1005F18D0FFE70F980F
:104AC000B0F1405F1BD0FFE70F98B0F1804F17D0D7
:104AD000FFE70F98B0F1A04F13D013E016E01C9839
:104AE0000830012103F084FC8DF867000EE01C986B
:104AF0002830012103F068FD8DF8670006E005E02D
:104B000004E003E001208DF86700FFE79DF86700EF
:104B100000280DD1FFE744F25840C5F602000168B5
:104B200021F0E0411C9AD2F8B0201143016004E06A
:104B30009DF867008DF86600FFE7FFE71C98407856
:104B4000000600283DD5FFE71C98006F00280E9056
:104B50001BD0FFE70E98B0F1805F05D0FFE70E98FD
:104B6000B0F1005F09D011E044F22C40C5F602001C
:104B7000016841F4003101600CE01C98083001210B
:104B800003F036FC8DF8670004E003E001208DF8A7
:104B90006700FFE79DF8670000280CD1FFE744F2AB
:104BA0005040C5F60200016821F040511C9A126F76
:104BB0001143016004E09DF867008DF86600FFE78F
:104BC000FFE71C98C078C007002838D0FFE71C9882
:104BD000806C03280D9017D80D99DFE801F01402BE
:104BE0000B1344F22C40C5F60200016841F4003179
:104BF00001600DE01C980830022103F0F9FB8DF8EC
:104C0000670005E004E003E001208DF86700FFE79E
:104C10009DF8670000280CD1FFE744F24C40C5F630
:104C20000200016821F003011C9A926C114301609B
:104C300004E09DF867008DF86600FFE7FFE71C9829
:104C400080784006002840F1BD80FFE744F6000070
:104C5000C5F60200016841F480710160FEF74CF86E
:104C60001A90FFE744F60000C5F602000068C00590
:104C700000280ED4FFE7FEF73FF8DDF868E0A0EB70
:104C80000E00652804D3FFE703208DF8670000E0DD
:104C9000E8E79DF86700002840F08E80FFE744F2C7
:104CA0007040C5F60200006800F440701C99D1F80D
:104CB000B41001F44071884213D0FFE744F2704011
:104CC000C5F60200016821F440711B91016841F4AE
:104CD00080310160016821F4803101601B9901601D
:104CE000FFE71C98D0F8B400B0F5807F21D1FFE732
:104CF000FEF702F81A90FFE744F27040C5F6020092
:104D0000006800F002000021B1EB500F10D1FFE766
:104D1000FDF7F2FFDDF868E0A0EB0E0041F2893EFE
:104D2000704504D3FFE703208DF8670000E0E3E758
:104D3000FFE79DF86700002838D1FFE7FFE71C98E0
:104D4000D0F8B40000F44070B0F5407F15D1FFE713
:104D500044F21040C5F60200016821F47C511C9A0F
:104D6000D2F8B4204FF6F043C0F6FF731A4041EA80
:104D700012110A4601600C920AE044F21040C5F696
:104D80000200016821F47C510A4601600B92FFE7A2
:104D90001C98D0F8B4006FF31F3044F27041C5F690
:104DA00002010A6810430860FFE704E09DF867000D
:104DB0008DF86600FFE704E09DF867008DF8660057
:104DC000FFE7FFE71C980068C007002800F04D804F
:104DD000FFE71C98C06F28280A902BD80A99DFE8B3
:104DE00001F01529292929292929162929292929BB
:104DF00029291E2929292929292926292929292931
:104E000029292729292929292929280016E01C9838
:104E10000830012103F0ECFA8DF867000EE01C98D1
:104E20002830012103F0D0FB8DF8670006E005E093
:104E300004E003E001208DF86700FFE79DF86700BC
:104E400000280CD1FFE744F25440C5F60200016887
:104E500021F038011C9AD26F1143016004E09DF8E3
:104E600067008DF86600FFE7FFE71C980078800771
:104E700000283AD5FFE71C98806F0528099019D8BB
:104E80000999DFE801F003040C14151616E01C98CC
:104E90000830012103F0ACFA8DF867000EE01C9891
:104EA0002830012103F090FB8DF8670006E005E053
:104EB00004E003E001208DF86700FFE79DF867003C
:104EC00000280CD1FFE744F25440C5F60200016807
:104ED00021F007011C9A926F1143016004E09DF8D4
:104EE00067008DF86600FFE7FFE71C980078400731
:104EF00000283CD5FFE71C98D0F8940005280890BE
:104F000019D80899DFE801F003040C14151616E00F
:104F10001C980830012103F06BFA8DF867000EE051
:104F20001C982830012103F04FFB8DF8670006E044
:104F300005E004E003E001208DF86700FFE79DF83D
:104F4000670000280DD1FFE744F25840C5F6020083
:104F5000016821F007011C9AD2F8942011430160E6
:104F600004E09DF867008DF86600FFE7FFE71C98F6
:104F700000788006002850D5FFE71C98D0F89000F4
:104F80000028079019D0FFE70798B0F1805F15D08F
:104F9000FFE70798B0F1005F18D0FFE70798B0F17E
:104FA000405F1BD0FFE70798B0F1804F17D0FFE7B5
:104FB0000798B0F1A04F13D013E016E01C9808300A
:104FC000002103F015FA8DF867000EE01C982830D8
:104FD000022103F0F9FA8DF8670006E005E004E02D
:104FE00003E001208DF86700FFE79DF867000028C7
:104FF0000DD1FFE744F25440C5F60200016821F0EC
:10500000E0411C9AD2F890201143016004E09DF821
:1050100067008DF86600FFE7FFE71C980078400600
:10502000002850D5FFE71C98D0F89C000028069077
:1050300019D0FFE70698B0F5806F15D0FFE7069806
:10504000B0F5006F18D0FFE70698B0F5406F1BD0A1
:10505000FFE70698B0F5805F17D0FFE70698B0F538
:10506000A05F13D013E016E01C980830002103F075
:10507000BFF98DF867000EE01C982830022103F07C
:10508000A3FA8DF8670006E005E004E003E00120E4
:105090008DF86700FFE79DF8670000280DD1FFE756
:1050A00044F25840C5F60200016821F4E0511C9A10
:1050B000D2F89C201143016004E09DF867008DF850
:1050C0006600FFE7FFE71C9800780006002850D52F
:1050D000FFE71C98D0F8A0000028059019D0FFE742
:1050E0000598B0F5005F15D0FFE70598B0F5804F43
:1050F00018D0FFE70598B0F5C04F1BD0FFE7059823
:10510000B0F5004F17D0FFE70598B0F5204F13D04A
:1051100013E016E01C980830002103F069F98DF8BF
:1051200067000EE01C982830022103F04DFA8DF83C
:10513000670006E005E004E003E001208DF8670069
:10514000FFE79DF8670000280DD1FFE744F25840C3
:10515000C5F60200016821F460411C9AD2F8A02033
:105160001143016004E09DF867008DF86600FFE7D9
:10517000FFE71C9800780007002821D5FFE71C985E
:10518000D0F88400B0F5805F0DD1FFE71C9828307F
:10519000022103F019FA002804D0FFE701208DF85E
:1051A0006600FFE7FFE744F25440C5F602000168DD
:1051B00021F440511C9AD2F8842011430160FFE78A
:1051C0001C980078C006002821D5FFE71C98D0F86D
:1051D0009800B0F5807F0DD1FFE71C9828300221A0
:1051E00003F0F2F9002804D0FFE701208DF86600F3
:1051F000FFE7FFE744F25840C5F60200016821F4DA
:1052000040711C9AD2F8982011430160FFE71C9866
:105210008078000700283ED5FFE71C98D0F8A4004E
:10522000002804900AD0FFE70498B0F5803F0DD025
:10523000FFE70498B0F5003F10D010E01C9808304C
:10524000002103F0D5F88DF867000CE01C98283099
:10525000022103F0B9F98DF8670004E003E00120B2
:105260008DF86700FFE79DF8670000280DD1FFE784
:1052700044F25840C5F60200016821F440311C9AFE
:10528000D2F8A4201143016004E09DF867008DF876
:105290006600FFE7FFE71C9880784007002840D5AC
:1052A000FFE71C98D0F88800B0F5801F03900AD063
:1052B000FFE70398B0F5001F0ED0FFE70398B0F5A5
:1052C000401F11D011E044F22C40C5F602000168E5
:1052D00041F4003101600CE01C982830012103F0FA
:1052E00073F98DF8670004E003E001208DF8670092
:1052F000FFE79DF8670000280DD1FFE744F2544016
:10530000C5F60200016821F440111C9AD2F88820E9
:105310001143016004E09DF867008DF86600FFE727
:10532000FFE71C988078C007002837D0FFE71C985B
:10533000006D0028029005D0FFE70298B0F5803F8D
:1053400009D010E044F22C40C5F60200016841F497
:10535000003101600BE01C980830022103F048F88E
:105360008DF8670003E001208DF86700FFE79DF8E6
:10537000670000280CD1FFE744F24C40C5F602005C
:10538000016821F480311C9A126D1143016004E020
:105390009DF867008DF86600FFE7FFE71C98C0786E
:1053A000800600280DD5FFE71C982830022103F065
:1053B0000BF9002804D0FFE701208DF86600FFE715
:1053C000FFE71C988078800700283ED5FFE71C98EF
:1053D000D0F88000002801901AD0FFE70198B0F5BE
:1053E000807F0AD0FFE70198B0F5007F0ED0FFE77D
:1053F0000198B0F5407F0AD00BE044F22C40C5F68E
:105400000200016841F40031016006E005E004E0BB
:1054100003E001208DF86700FFE79DF86700002892
:105420000DD1FFE744F25440C5F60200016821F4B3
:1054300040711C9AD2F880201143016004E09DF86D
:1054400067008DF86600FFE7FFE71C988078C006CC
:1054500000280CD5FFE744F25040C5F60200016871
:1054600021F000411C9A526F11430160FFE71C9824
:10547000C078C00600280DD5FFE744F21040C5F6FD
:105480000200016821F480411C9AD2F8B82011432F
:105490000160FFE71C988078800600280CD5FFE7A4
:1054A00044F25040C5F60200016821F080711C9A58
:1054B000D26E11430160FFE71C98C07840060028B7
:1054C00011D5FFE7FFE744F21040C5F6020001687E
:1054D00021F4004101601C99D1F8BC10026811430D
:1054E0000160FFE7FFE71C98C078000600280CD594
:1054F000FFE744F24C40C5F60200016821F040513C
:105500001C9A526D11430160FFE71C9880780006D9
:1055100000280DD5FFE744F25440C5F602000168AB
:1055200021F440011C9AD2F88C2011430160FFE75E
:105530001C980079C007002813D0FFE71C9808309A
:10554000002102F055FF8DF867009DF867000028E4
:1055500001D1FFE704E09DF867008DF86600FFE7E2
:10556000FFE71C9800798007002813D5FFE71C98F7
:105570000830012102F03CFF8DF867009DF86700BC
:10558000002801D1FFE704E09DF867008DF8660070
:10559000FFE7FFE71C9800794007002813D5FFE7D5
:1055A0001C980830022102F023FF8DF867009DF857
:1055B0006700002801D1FFE704E09DF867008DF83F
:1055C0006600FFE7FFE71C9800790007002813D565
:1055D000FFE71C982830002102F0F6FF8DF86700E5
:1055E0009DF86700002801D1FFE704E09DF86700FF
:1055F0008DF86600FFE7FFE71C980079C0060028D9
:1056000013D5FFE71C982830012102F0DDFF8DF84B
:1056100067009DF86700002801D1FFE704E09DF8CE
:1056200067008DF86600FFE7FFE71C9800798006A9
:10563000002813D5FFE71C982830022102F0C4FF90
:105640008DF867009DF86700002801D1FFE704E0AE
:105650009DF867008DF86600FFE7FFE79DF866009C
:10566000002804D1FFE700208DF8770003E0012037
:105670008DF87700FFE79DF877001EB080BD000031
:1056800080B588B00A460346069005910698002822
:105690000192009304D1FFE701208DF81F0040E242
:1056A000059842F20001C5F20021096801F00F01DE
:1056B000884216D9FFE742F20000C5F200200168D7
:1056C00021F00F01059A11430160006800F00F00FE
:1056D0000599884204D0FFE701208DF81F0020E2E1
:1056E000FFE7069800684007002819D5FFE70698ED
:1056F000006944F21841C5F60201096801F0700121
:1057000088420CD9FFE744F21840C5F60200016850
:1057100021F07001069A126911430160FFE7FFE76B
:10572000069800680007002819D5FFE70698406929
:1057300044F21C41C5F60201096801F0700188427B
:105740000CD9FFE744F21C40C5F60200016821F0C5
:105750007001069A526911430160FFE7FFE706985E
:105760000068C006002819D5FFE70698806944F252
:105770001C41C5F60201096801F4E06188420CD9B8
:10578000FFE744F21C40C5F60200016821F4E06125
:10579000069A926911430160FFE7FFE706980068E7
:1057A0008006002819D5FFE70698C06944F2204119
:1057B000C5F60201096801F0700188420CD9FFE7C3
:1057C00044F22040C5F60200016821F07001069AFB
:1057D000D26911430160FFE7FFE706980068800780
:1057E000002819D5FFE70698C06844F21841C5F6AD
:1057F0000201096801F00F0188420CD9FFE744F269
:105800001840C5F60200016821F00F01069AD2681F
:1058100011430160FFE7FFE706980068C007002812
:1058200000F08E80FFE744F21840C5F602000168E0
:1058300021F47061069A92681143016006984068ED
:10584000022811D1FFE744F20040C5F602000068CB
:1058500000F400300021B1EB504F04D1FFE70120EC
:105860008DF81F005DE13EE006984068032811D1E5
:10587000FFE744F20040C5F60200006800F0007047
:105880000021B1EB506F04D1FFE701208DF81F001C
:1058900047E127E006984068012811D1FFE744F26C
:1058A0000040C5F60200006800F480700021B1EBF2
:1058B000102F04D1FFE701208DF81F0031E110E027
:1058C00044F20040C5F60200006800F00400002128
:1058D000B1EB900F04D1FFE701208DF81F0020E10C
:1058E000FFE7FFE7FFE744F21040C5F6020001685A
:1058F00021F00701069A526811430160FDF7FCF997
:105900000390FFE744F21040C5F60200006800F083
:10591000380006994968B0EBC10F10D0FFE7FDF7DA
:10592000EBF9DDF80CE0A0EB0E0041F2893E70458A
:1059300004D3FFE703208DF81F00F2E0E2E7FFE762
:10594000069800688007002819D5FFE70698C06808
:1059500044F21841C5F60201096801F00F018842BE
:105960000CD2FFE744F21840C5F60200016821F0AE
:105970000F01069AD26811430160FFE7FFE705981F
:1059800042F20001C5F20021096801F00F018842CE
:1059900016D2FFE742F20000C5F20020016821F0B4
:1059A0000F01059A11430160006800F00F0005998E
:1059B000884204D0FFE701208DF81F00B1E0FFE727
:1059C000069800684007002819D5FFE70698006987
:1059D00044F21841C5F60201096801F070018842DD
:1059E0000CD2FFE744F21840C5F60200016821F02E
:1059F0007001069A126911430160FFE7FFE70698FC
:105A000000680007002819D5FFE70698406944F2AE
:105A10001C41C5F60201096801F0700188420CD2F0
:105A2000FFE744F21C40C5F60200016821F0700156
:105A3000069A526911430160FFE7FFE70698006884
:105A4000C006002819D5FFE70698806944F21C417A
:105A5000C5F60201096801F4E06188420CD2FFE753
:105A600044F21C40C5F60200016821F4E061069A88
:105A7000926911430160FFE7FFE70698006880061E
:105A8000002819D5FFE70698C06944F22041C5F601
:105A90000201096801F0700188420CD2FFE744F26C
:105AA0002040C5F60200016821F07001069AD26913
:105AB00011430160FFE7FFE700F096F844F2184E4B
:105AC000C5F6020EDEF80010C1F303214AF60A52B1
:105AD000C0F60002515C01F01F01C840029002981C
